{
  "contractName": "Election",
  "abi": [
    {
      "inputs": [
        {
          "internalType": "bytes32[]",
          "name": "participants",
          "type": "bytes32[]"
        },
        {
          "internalType": "uint256",
          "name": "_endTimeInMinute",
          "type": "uint256"
        }
      ],
      "payable": false,
      "stateMutability": "nonpayable",
      "type": "constructor"
    },
    {
      "anonymous": false,
      "inputs": [
        {
          "indexed": false,
          "internalType": "address",
          "name": "newVoter",
          "type": "address"
        }
      ],
      "name": "addRightToVote",
      "type": "event"
    },
    {
      "anonymous": false,
      "inputs": [
        {
          "indexed": true,
          "internalType": "uint256",
          "name": "_candidateId",
          "type": "uint256"
        }
      ],
      "name": "votedEvent",
      "type": "event"
    },
    {
      "constant": true,
      "inputs": [
        {
          "internalType": "uint256",
          "name": "",
          "type": "uint256"
        }
      ],
      "name": "candidates",
      "outputs": [
        {
          "internalType": "uint256",
          "name": "id",
          "type": "uint256"
        },
        {
          "internalType": "string",
          "name": "name",
          "type": "string"
        },
        {
          "internalType": "uint256",
          "name": "voteCount",
          "type": "uint256"
        }
      ],
      "payable": false,
      "stateMutability": "view",
      "type": "function"
    },
    {
      "constant": true,
      "inputs": [],
      "name": "candidatesCount",
      "outputs": [
        {
          "internalType": "uint256",
          "name": "",
          "type": "uint256"
        }
      ],
      "payable": false,
      "stateMutability": "view",
      "type": "function"
    },
    {
      "constant": true,
      "inputs": [],
      "name": "chairPerson",
      "outputs": [
        {
          "internalType": "address",
          "name": "",
          "type": "address"
        }
      ],
      "payable": false,
      "stateMutability": "view",
      "type": "function"
    },
    {
      "constant": true,
      "inputs": [
        {
          "internalType": "address",
          "name": "",
          "type": "address"
        }
      ],
      "name": "voters",
      "outputs": [
        {
          "internalType": "uint256",
          "name": "weight",
          "type": "uint256"
        },
        {
          "internalType": "uint256",
          "name": "vote",
          "type": "uint256"
        },
        {
          "internalType": "bool",
          "name": "voted",
          "type": "bool"
        },
        {
          "internalType": "address",
          "name": "delegate_to",
          "type": "address"
        }
      ],
      "payable": false,
      "stateMutability": "view",
      "type": "function"
    },
    {
      "constant": false,
      "inputs": [
        {
          "internalType": "address",
          "name": "voter",
          "type": "address"
        }
      ],
      "name": "giveRightToVote",
      "outputs": [],
      "payable": false,
      "stateMutability": "nonpayable",
      "type": "function"
    },
    {
      "constant": false,
      "inputs": [
        {
          "internalType": "address[]",
          "name": "_voters",
          "type": "address[]"
        }
      ],
      "name": "giveMultipleRightToVote",
      "outputs": [],
      "payable": false,
      "stateMutability": "nonpayable",
      "type": "function"
    },
    {
      "constant": false,
      "inputs": [
        {
          "internalType": "uint256",
          "name": "_timeInMinutes",
          "type": "uint256"
        }
      ],
      "name": "setTimeBeforeEnd",
      "outputs": [],
      "payable": false,
      "stateMutability": "nonpayable",
      "type": "function"
    },
    {
      "constant": false,
      "inputs": [
        {
          "internalType": "uint256",
          "name": "_candidateId",
          "type": "uint256"
        }
      ],
      "name": "vote",
      "outputs": [],
      "payable": false,
      "stateMutability": "nonpayable",
      "type": "function"
    },
    {
      "constant": false,
      "inputs": [
        {
          "internalType": "address",
          "name": "to",
          "type": "address"
        }
      ],
      "name": "delegate",
      "outputs": [],
      "payable": false,
      "stateMutability": "nonpayable",
      "type": "function"
    },
    {
      "constant": true,
      "inputs": [],
      "name": "winningProposal",
      "outputs": [
        {
          "internalType": "uint256",
          "name": "winningProposal_",
          "type": "uint256"
        }
      ],
      "payable": false,
      "stateMutability": "view",
      "type": "function"
    },
    {
      "constant": true,
      "inputs": [],
      "name": "winnerName",
      "outputs": [
        {
          "internalType": "string",
          "name": "winnerName_",
          "type": "string"
        }
      ],
      "payable": false,
      "stateMutability": "view",
      "type": "function"
    }
  ],
  "bytecode": "0x60806040523480156200001157600080fd5b50604051620017b0380380620017b0833981810160405260408110156200003757600080fd5b81019080805160405193929190846401000000008211156200005857600080fd5b838201915060208201858111156200006f57600080fd5b82518660208202830111640100000000821117156200008d57600080fd5b8083526020830192505050908051906020019060200280838360005b83811015620000c6578082015181840152602081019050620000a9565b505050509050016040526020018051906020019092919050505033600360006101000a81548173ffffffffffffffffffffffffffffffffffffffff021916908373ffffffffffffffffffffffffffffffffffffffff1602179055506001600080600360009054906101000a900473ffffffffffffffffffffffffffffffffffffffff1673ffffffffffffffffffffffffffffffffffffffff1673ffffffffffffffffffffffffffffffffffffffff1681526020019081526020016000206000018190555060008090505b8251811015620001cd57620001bf838281518110620001ab57fe5b6020026020010151620001e260201b60201c565b808060010191505062000190565b50603c810242016004819055505050620004be565b6002600081548092919060010191905055506040518060600160405280600254815260200162000218836200027060201b60201c565b815260200160008152506001600060025481526020019081526020016000206000820151816000015560208201518160010190805190602001906200025f9291906200040f565b506040820151816002015590505050565b60608060206040519080825280601f01601f191660200182016040528015620002a85781602001600182028038833980820191505090505b50905060008090506000809050600090505b60208110156200035a5760008160080260020a8660001c0260001b9050600060f81b817effffffffffffffffffffffffffffffffffffffffffffffffffffffffffffff1916146200034b57808484815181106200031357fe5b60200101907effffffffffffffffffffffffffffffffffffffffffffffffffffffffffffff1916908160001a90535082806001019350505b508080600101915050620002ba565b6060826040519080825280601f01601f191660200182016040528015620003905781602001600182028038833980820191505090505b509050600091505b828210156200040357838281518110620003ae57fe5b602001015160f81c60f81b818381518110620003c657fe5b60200101907effffffffffffffffffffffffffffffffffffffffffffffffffffffffffffff1916908160001a905350818060010192505062000398565b80945050505050919050565b828054600181600116156101000203166002900490600052602060002090601f016020900481019282601f106200045257805160ff191683800117855562000483565b8280016001018555821562000483579182015b828111156200048257825182559160200191906001019062000465565b5b50905062000492919062000496565b5090565b620004bb91905b80821115620004b75760008160009055506001016200049d565b5090565b90565b6112e280620004ce6000396000f3fe608060405234801561001057600080fd5b50600436106100a95760003560e01c8063609ff1bd11610071578063609ff1bd146102215780637c04b2d11461023f5780639e7b8d61146102f7578063a3ec138d1461033b578063d4d4b5ac146103d8578063e2ba53f014610422576100a9565b80630121b93f146100ae578063174280ac146100dc5780632d35a8a21461010a5780633477ee2e146101285780635c19a95c146101dd575b600080fd5b6100da600480360360208110156100c457600080fd5b81019080803590602001909291905050506104a5565b005b610108600480360360208110156100f257600080fd5b8101908080359060200190929190505050610846565b005b610112610855565b6040518082815260200191505060405180910390f35b6101546004803603602081101561013e57600080fd5b810190808035906020019092919050505061085b565b6040518084815260200180602001838152602001828103825284818151815260200191508051906020019080838360005b838110156101a0578082015181840152602081019050610185565b50505050905090810190601f1680156101cd5780820380516001836020036101000a031916815260200191505b5094505050505060405180910390f35b61021f600480360360208110156101f357600080fd5b81019080803573ffffffffffffffffffffffffffffffffffffffff16906020019092919050505061091d565b005b610229610d33565b6040518082815260200191505060405180910390f35b6102f56004803603602081101561025557600080fd5b810190808035906020019064010000000081111561027257600080fd5b82018360208201111561028457600080fd5b803590602001918460208302840111640100000000831117156102a657600080fd5b919080806020026020016040519081016040528093929190818152602001838360200280828437600081840152601f19601f820116905080830192505050505050509192919290505050610d97565b005b6103396004803603602081101561030d57600080fd5b81019080803573ffffffffffffffffffffffffffffffffffffffff169060200190929190505050610e79565b005b61037d6004803603602081101561035157600080fd5b81019080803573ffffffffffffffffffffffffffffffffffffffff169060200190929190505050611145565b60405180858152602001848152602001831515151581526020018273ffffffffffffffffffffffffffffffffffffffff1673ffffffffffffffffffffffffffffffffffffffff16815260200194505050505060405180910390f35b6103e06111a2565b604051808273ffffffffffffffffffffffffffffffffffffffff1673ffffffffffffffffffffffffffffffffffffffff16815260200191505060405180910390f35b61042a6111c8565b6040518080602001828103825283818151815260200191508051906020019080838360005b8381101561046a57808201518184015260208101905061044f565b50505050905090810190601f1680156104975780820380516001836020036101000a031916815260200191505b509250505060405180910390f35b60008060003373ffffffffffffffffffffffffffffffffffffffff1673ffffffffffffffffffffffffffffffffffffffff16815260200190815260200160002060000154141561055d576040517f08c379a00000000000000000000000000000000000000000000000000000000081526004018080602001828103825260198152602001807f596f752068617665206e6f20726967687420746f20766f74650000000000000081525060200191505060405180910390fd5b6000803373ffffffffffffffffffffffffffffffffffffffff1673ffffffffffffffffffffffffffffffffffffffff16815260200190815260200160002060020160009054906101000a900460ff161561061f576040517f08c379a000000000000000000000000000000000000000000000000000000000815260040180806020018281038252601b8152602001807f54686520766f7465722068617320616c726561647920766f746564000000000081525060200191505060405180910390fd5b60025481111580156106315750600081115b6106a3576040517f08c379a000000000000000000000000000000000000000000000000000000000815260040180806020018281038252601b8152602001807f5468652063616e64696461746520646f65736e2774206578697374000000000081525060200191505060405180910390fd5b600454421061071a576040517f08c379a00000000000000000000000000000000000000000000000000000000081526004018080602001828103825260158152602001807f4974277320746f6f206c61746520746f20766f7465000000000000000000000081525060200191505060405180910390fd5b60016000803373ffffffffffffffffffffffffffffffffffffffff1673ffffffffffffffffffffffffffffffffffffffff16815260200190815260200160002060020160006101000a81548160ff021916908315150217905550806000803373ffffffffffffffffffffffffffffffffffffffff1673ffffffffffffffffffffffffffffffffffffffff168152602001908152602001600020600101819055506000803373ffffffffffffffffffffffffffffffffffffffff1673ffffffffffffffffffffffffffffffffffffffff168152602001908152602001600020600001546001600083815260200190815260200160002060020181905550807ffff3c900d938d21d0990d786e819f29b8d05c1ef587b462b939609625b684b1660405160405180910390a250565b603c8102420160048190555050565b60025481565b6001602052806000526040600020600091509050806000015490806001018054600181600116156101000203166002900480601f01602080910402602001604051908101604052809291908181526020018280546001816001161561010002031660029004801561090d5780601f106108e25761010080835404028352916020019161090d565b820191906000526020600020905b8154815290600101906020018083116108f057829003601f168201915b5050505050908060020154905083565b600081905060008060003373ffffffffffffffffffffffffffffffffffffffff1673ffffffffffffffffffffffffffffffffffffffff16815260200190815260200160002090508060020160009054906101000a900460ff16156109e9576040517f08c379a00000000000000000000000000000000000000000000000000000000081526004018080602001828103825260128152602001807f596f7520616c726561647920766f7465642e000000000000000000000000000081525060200191505060405180910390fd5b3373ffffffffffffffffffffffffffffffffffffffff168273ffffffffffffffffffffffffffffffffffffffff161415610a8b576040517f08c379a000000000000000000000000000000000000000000000000000000000815260040180806020018281038252601e8152602001807f53656c662d64656c65676174696f6e20697320646973616c6c6f7765642e000081525060200191505060405180910390fd5b5b600073ffffffffffffffffffffffffffffffffffffffff166000808473ffffffffffffffffffffffffffffffffffffffff1673ffffffffffffffffffffffffffffffffffffffff16815260200190815260200160002060020160019054906101000a900473ffffffffffffffffffffffffffffffffffffffff1673ffffffffffffffffffffffffffffffffffffffff1614610c2c576000808373ffffffffffffffffffffffffffffffffffffffff1673ffffffffffffffffffffffffffffffffffffffff16815260200190815260200160002060020160019054906101000a900473ffffffffffffffffffffffffffffffffffffffff1691503373ffffffffffffffffffffffffffffffffffffffff168273ffffffffffffffffffffffffffffffffffffffff161415610c27576040517f08c379a00000000000000000000000000000000000000000000000000000000081526004018080602001828103825260198152602001807f466f756e64206c6f6f7020696e2064656c65676174696f6e2e0000000000000081525060200191505060405180910390fd5b610a8c565b60018160020160006101000a81548160ff021916908315150217905550818160020160016101000a81548173ffffffffffffffffffffffffffffffffffffffff021916908373ffffffffffffffffffffffffffffffffffffffff16021790555060008060008473ffffffffffffffffffffffffffffffffffffffff1673ffffffffffffffffffffffffffffffffffffffff16815260200190815260200160002090508060020160009054906101000a900460ff1615610d16578160000154600160008360010154815260200190815260200160002060020160008282540192505081905550610d2d565b816000015481600001600082825401925050819055505b50505050565b6000806000905060008090505b600254811015610d92578160016000838152602001908152602001600020600201541115610d8557600160008281526020019081526020016000206002015491508092505b8080600101915050610d40565b505090565b600360009054906101000a900473ffffffffffffffffffffffffffffffffffffffff1673ffffffffffffffffffffffffffffffffffffffff163373ffffffffffffffffffffffffffffffffffffffff1614610e3d576040517f08c379a00000000000000000000000000000000000000000000000000000000081526004018080602001828103825260288152602001806112866028913960400191505060405180910390fd5b60008090505b8151811015610e7557610e68828281518110610e5b57fe5b6020026020010151610e79565b8080600101915050610e43565b5050565b600360009054906101000a900473ffffffffffffffffffffffffffffffffffffffff1673ffffffffffffffffffffffffffffffffffffffff163373ffffffffffffffffffffffffffffffffffffffff1614610f1f576040517f08c379a00000000000000000000000000000000000000000000000000000000081526004018080602001828103825260288152602001806112866028913960400191505060405180910390fd5b6000808273ffffffffffffffffffffffffffffffffffffffff1673ffffffffffffffffffffffffffffffffffffffff16815260200190815260200160002060020160009054906101000a900460ff1615610fe1576040517f08c379a00000000000000000000000000000000000000000000000000000000081526004018080602001828103825260188152602001807f54686520766f74657220616c726561647920766f7465642e000000000000000081525060200191505060405180910390fd5b60008060008373ffffffffffffffffffffffffffffffffffffffff1673ffffffffffffffffffffffffffffffffffffffff1681526020019081526020016000206000015414611098576040517f08c379a00000000000000000000000000000000000000000000000000000000081526004018080602001828103825260148152602001807f54686520766f7465722063616e277420766f746500000000000000000000000081525060200191505060405180910390fd5b60016000808373ffffffffffffffffffffffffffffffffffffffff1673ffffffffffffffffffffffffffffffffffffffff168152602001908152602001600020600001819055507f9cfe2c7ea4837f86c0aefaa7671aa0e7b63eb64ead705eafe4d54c9d9a8077e481604051808273ffffffffffffffffffffffffffffffffffffffff1673ffffffffffffffffffffffffffffffffffffffff16815260200191505060405180910390a150565b60006020528060005260406000206000915090508060000154908060010154908060020160009054906101000a900460ff16908060020160019054906101000a900473ffffffffffffffffffffffffffffffffffffffff16905084565b600360009054906101000a900473ffffffffffffffffffffffffffffffffffffffff1681565b6060600160006111d6610d33565b81526020019081526020016000206001018054600181600116156101000203166002900480601f01602080910402602001604051908101604052809291908181526020018280546001816001161561010002031660029004801561127b5780601f106112505761010080835404028352916020019161127b565b820191906000526020600020905b81548152906001019060200180831161125e57829003601f168201915b505050505090509056fe4f6e6c79206368616972706572736f6e2063616e206769766520726967687420746f20766f74652ea265627a7a72315820f9dec2e81c7753166f24e69372a4fc5fa517629380547c2450161fcf6c8665dd64736f6c63430005100032",
  "source": "pragma solidity >=0.4.21 <0.7.0;\n\ncontract Election {\n    //Model a Candidate\n    struct Candidate {\n        uint256 id;\n        string name;\n        uint256 voteCount;\n    }\n\n    struct Voter {\n        uint256 weight;\n        uint256 vote;\n        bool voted;\n        address delegate_to;\n    }\n\n    // Store accounts that havec voted\n    mapping(address => Voter) public voters;\n\n    // Store Candidates\n\n    // Fetch Candidate\n    mapping(uint256 => Candidate) public candidates;\n\n    // Store Candidates Count\n    uint256 public candidatesCount;\n\n    address public chairPerson;\n\n    uint256 private endDate;\n\n    // Event\n    event votedEvent(uint256 indexed _candidateId);\n    event addRightToVote(address newVoter);\n\n    constructor(bytes32[] memory participants, uint256 _endTimeInMinute)\n        public\n    {\n        chairPerson = msg.sender;\n        voters[chairPerson].weight = 1;\n\n        for (uint256 i = 0; i < participants.length; i++) {\n            addCandidate(participants[i]);\n        }\n        endDate = now + (_endTimeInMinute * 1 minutes);\n\n    }\n\n    function giveRightToVote(address voter) public {\n        require(\n            msg.sender == chairPerson,\n            \"Only chairperson can give right to vote.\"\n        );\n        require(!voters[voter].voted, \"The voter already voted.\");\n        require(voters[voter].weight == 0, \"The voter can't vote\");\n        voters[voter].weight = 1;\n        emit addRightToVote(voter);\n    }\n\n    function giveMultipleRightToVote(address[] memory _voters) public {\n        require(\n            msg.sender == chairPerson,\n            \"Only chairperson can give right to vote.\"\n        );\n        for (uint256 i = 0; i < _voters.length; i++) {\n            giveRightToVote(_voters[i]);\n        }\n    }\n\n    function setTimeBeforeEnd(uint256 _timeInMinutes) public {\n        endDate = now + (_timeInMinutes * 1 minutes);\n    }\n\n    function addCandidate(bytes32 _name) private {\n        candidatesCount++;\n        candidates[candidatesCount] = Candidate(\n            candidatesCount,\n            bytes32ToString(_name),\n            0\n        );\n    }\n\n    function vote(uint256 _candidateId) public {\n        // Check if can vote\n        require(voters[msg.sender].weight != 0, \"You have no right to vote\");\n\n        // Require that they haven't voted\n        require(!voters[msg.sender].voted, \"The voter has already voted\");\n\n        // Check valid candidate\n        require(\n            _candidateId <= candidatesCount && _candidateId > 0,\n            \"The candidate doesn't exist\"\n        );\n\n        // Check if vote is not overtime\n        require(now < endDate, \"It's too late to vote\");\n\n        //Record that voter has voted\n        voters[msg.sender].voted = true;\n        voters[msg.sender].vote = _candidateId;\n\n        // Increase vote count of candidate\n        candidates[_candidateId].voteCount = voters[msg.sender].weight;\n\n        emit votedEvent(_candidateId);\n    }\n\n    function delegate(address to) public {\n        address _to = to;\n        Voter storage sender = voters[msg.sender];\n        require(!sender.voted, \"You already voted.\");\n\n        require(_to != msg.sender, \"Self-delegation is disallowed.\");\n\n        while (voters[_to].delegate_to != address(0)) {\n            _to = voters[_to].delegate_to;\n            require(_to != msg.sender, \"Found loop in delegation.\");\n        }\n\n        sender.voted = true;\n        sender.delegate_to = _to;\n        Voter storage delegate_ = voters[_to];\n        if (delegate_.voted) {\n            candidates[delegate_.vote].voteCount += sender.weight;\n        } else {\n            delegate_.weight += sender.weight;\n        }\n    }\n\n    function winningProposal() public view returns (uint256 winningProposal_) {\n        uint256 winningVoteCount = 0;\n        for (uint256 p = 0; p < candidatesCount; p++) {\n            if (candidates[p].voteCount > winningVoteCount) {\n                winningVoteCount = candidates[p].voteCount;\n                winningProposal_ = p;\n            }\n        }\n    }\n\n    function winnerName() public view returns (string memory winnerName_) {\n        winnerName_ = candidates[winningProposal()].name;\n    }\n\n    function bytes32ToString(bytes32 x) private view returns (string memory) {\n        bytes memory bytesString = new bytes(32);\n        uint256 charCount = 0;\n        uint256 j = 0;\n        for (j = 0; j < 32; j++) {\n            bytes1 char = bytes1(bytes32(uint256(x) * 2**(8 * j)));\n            if (char != 0) {\n                bytesString[charCount] = char;\n                charCount++;\n            }\n        }\n        bytes memory bytesStringTrimmed = new bytes(charCount);\n        for (j = 0; j < charCount; j++) {\n            bytesStringTrimmed[j] = bytesString[j];\n        }\n        return string(bytesStringTrimmed);\n    }\n}\n",
  "sourcePath": "/home/dorian/Projects/Cours/5BLOC/election/contracts/Election.sol",
  "compiler": {
    "name": "solc",
    "version": "0.5.16+commit.9c3226ce.Emscripten.clang"
  },
  "schemaVersion": "3.0.23",
  "updatedAt": "2020-03-20T08:40:51.585Z",
  "networkType": "ethereum",
  "devdoc": {
    "methods": {}
  },
  "userdoc": {
    "methods": {}
  }
}